:100000000C9446000C9465000C9465000C946500FB
:100010000C9465000C9465000C9465000C946500CC
:100020000C9465000C9465000C9465000C946500BC
:100030000C9465000C9491000C9465000C94650080
:100040000C9465000C9465000C9465000C9465009C
:100050000C9465000C94E1000C9465000C94650010
:100060000C9465000C9465000C9465000C9465007C
:100070000C9465000C9465000C9465000C9465006C
:100080000C9465000C9465000C949B0211241FBE17
:10009000CFEFD0E4DEBFCDBF11E0A0E0B1E0ECEAED
:1000A000F5E000E00BBF02C007900D92A430B1074D
:1000B000D9F714E0A4E0B1E001C01D92A135B10769
:1000C000E1F70E9467000C94D4020C940000CF93D7
:1000D000DF930E94C8000E944C02789480E593EC64
:1000E0002AEF30E0F9013197F1F70197D9F7CAEF1C
:1000F000D0E00E9486026091080170910901809110
:100100000A0190910B010E94290180E091E00E9478
:10011000130180E197E2FE013197F1F70197D9F7DA
:10012000E8CF1F920F920FB60F920BB60F921124C9
:100130008F93EF93FF93E0915003F0E0E05FFC4F6B
:100140008081823018F010926F0018C0E091500347
:10015000F0E0E05FFC4F8081882311F4299809C00A
:10016000E0915003F0E0E05FFC4F8081813009F4C2
:10017000299A809150038F5F80935003FF91EF91F4
:100180008F910F900BBE0F900FBE0F901F90189580
:100190001092C50080E48093C400E0ECF0E0808120
:1001A0008D7F8083E1ECF0E0808188638083E2ECE6
:1001B000F0E080818660808380818670808378947F
:1001C00008951F920F920FB60F920BB60F92112443
:1001D0008F939F93EF93FF9385B191E0892785B922
:1001E0009091040180910501981769F080910401B4
:1001F000E82FF0E0EF5AFC4F90819093C6008F5F9C
:100200008093040105C08091C1008F7D8093C1005F
:10021000FF91EF919F918F910F900BBE0F900FBEAA
:100220000F901F901895DC0110C011968091050168
:10023000E82FF0E0EF5AFC4F90838F5F8093050129
:100240008091C10080628093C1009C91992369F7DD
:100250000895AF92BF92CF92DF92EF92FF920F93E9
:100260001F936B017C0120E03AEC4AE95BE30E94BA
:10027000B202205D8091050191E5A92E93E0B92E8F
:10028000F501E80FF11D20838F5F8093050101ECDC
:1002900010E0F801808180628083C701B60120E010
:1002A0003AEC4AE95BE30E94B20220E031EE45EF0E
:1002B00055E00E94B202205D80910501F501E80F32
:1002C000F11D20838F5F80930501F801808180629A
:1002D0008083C701B60120E031EE45EF55E00E9472
:1002E000B20220E836E948E950E00E94B202205DFF
:1002F00080910501F501E80FF11D20838F5F809348
:100300000501F801808180628083C701B60120E881
:1003100036E948E950E00E94B20220E432E44FE0BE
:1003200050E00E94B202205D80910501F501E80FC6
:10033000F11D20838F5F80930501F8018081806229
:100340008083C701B60120E432E44FE050E00E9410
:10035000B20220EA36E841E050E00E94B202205D9D
:1003600080910501F501E80FF11D20838F5F8093D7
:100370000501F801808180628083C701B60120EA0F
:1003800036E841E050E00E94B20220E137E240E06E
:1003900050E00E94B202205D80910501F501E80F56
:1003A000F11D20838F5F80930501F80180818062B9
:1003B0008083C701B60120E137E240E050E00E94AF
:1003C000B20228EE33E040E050E00E94B202205D2D
:1003D00080910501F501E80FF11D20838F5F809367
:1003E0000501F801808180628083C701B60128EE93
:1003F00033E040E050E00E94B20224E630E040E00A
:1004000050E00E94B202205D80910501F501E80FE5
:10041000F11D20838F5F80930501F8018081806248
:100420008083C701B60124E630E040E050E00E943E
:10043000B2022AE030E040E050E00E94B202205DCB
:1004400080910501F501E80FF11D20838F5F8093F6
:100450000501F801808180628083C701B6012AE02E
:1004600030E040E050E00E94B202605D8091050102
:10047000A80EB11CF50160838F5F80930501F80120
:100480008081806280831F910F91FF90EF90DF90B9
:10049000CF90BF90AF90089510920D0110920C0173
:1004A000E0E9F0E080818E7F808380818D7F808392
:1004B000A1E9B0E08C91877F8C938C918F7E8C9397
:1004C00080818F7B808380818F77808380818F7E06
:1004D000808380818F7D8083E1E7F0E0808181608F
:1004E00080838C9181608C938C918D7F8C938C9187
:1004F00084608C9388E091E09093070180930601DB
:10050000029690930F0180930E010895E0910E01E1
:10051000F0910F0180910C0190910D0191838083E6
:10052000E0910601F091070180919400909195006F
:100530009183808308951F920F920FB60F9211241A
:100540008F939F9380910C0190910D010196909350
:100550000D0180930C019F918F910F900FBE0F9012
:100560001F901895A1E21A2EAA1BBB1BFD010DC0FE
:10057000AA1FBB1FEE1FFF1FA217B307E407F50753
:1005800020F0A21BB30BE40BF50B661F771F881F2F
:10059000991F1A9469F760957095809590959B01C5
:0C05A000AC01BD01CF010895F894FFCF1D
:0405AC000D0A000034
:00000001FF
