:100000000C9446000C945D000C945D000C945D0013
:100010000C945D000C945D000C945D000C945D00EC
:100020000C945D000C945D000C945D000C945D00DC
:100030000C945D000C945D000C945D000C945D00CC
:100040000C945D000C945D000C945D000C945D00BC
:100050000C945D000C945D000C945D000C945D00AC
:100060000C945D000C945D000C945D000C945D009C
:100070000C945D000C945D000C945D000C945D008C
:100080000C945D000C945D000C945D0011241FBE67
:10009000CFEFD0E4DEBFCDBF11E0A0E0B1E0E6EEEF
:1000A000F0E000E00BBF02C007900D92A030B10756
:1000B000D9F70E945F000C9471000C940000249A00
:1000C0004AEF50E028E833E12C9A80ED97E0FA01FE
:1000D0003197F1F70197D9F72C98C9010197F1F7FA
:0600E000F3CFF894FFCFFE
:00000001FF
