:100000000C9446000C9465000C9465000C946500FB
:100010000C9465000C9465000C9465000C946500CC
:100020000C9465000C9465000C9465000C946500BC
:100030000C9465000C94BB000C9465000C94650056
:100040000C9465000C9465000C9465000C9465009C
:100050000C9465000C94F2000C9465000C946500FF
:100060000C9465000C9465000C9465000C9465007C
:100070000C9465000C9465000C9465000C9465006C
:100080000C9465000C9465000C94650011241FBE4F
:10009000CFEFD0E4DEBFCDBF11E0A0E0B1E0ECE4F3
:1000A000F2E000E00BBF02C007900D92A030B10754
:1000B000D9F714E0A0E0B1E001C01D92A334B1076C
:1000C000E1F70E9476000C9424010C9400005D98E6
:1000D000559A4098389A5F98579A5B98539A5A98CD
:1000E000529A5E98569A5C98549A08950E946700B6
:1000F0008091B00081608093B0008091B0008260F8
:100100008093B0008091B000877F8093B000809191
:10011000B0008F7B8093B0008091B00080688093A6
:10012000B0008091B0008F7E8093B0008091B000CD
:1001300080628093B00083E08093B10078944DE7B3
:100140002AEF30E05C9A5D9A5A9A5F9A5E9A4093E1
:10015000B3004093B40080E29EE4F9013197F1F7D7
:100160000197D9F75C9880E29EE4F9013197F1F7A5
:100170000197D9F7E7CF1F920F920FB60F920BB6E8
:100180000F9211248F93EF93FF93E0914203F0E0DD
:10019000EE5FFC4F8081823018F010926F0018C023
:1001A000E0914203F0E0EE5FFC4F8081882311F480
:1001B000299809C0E0914203F0E0EE5FFC4F808196
:1001C000813009F4299A809142038F5F8093420322
:1001D000FF91EF918F910F900BBE0F900FBE0F907C
:1001E0001F9018951F920F920FB60F920BB60F9299
:1001F00011248F939F93EF93FF9385B191E089270B
:1002000085B99091000180910101981769F0809162
:100210000001E82FF0E0ED5BFC4F90819093C60069
:100220008F5F8093000105C08091C1008F7D809316
:10023000C100FF91EF919F918F910F900BBE0F9096
:0C0240000FBE0F901F901895F894FFCF90
:00000001FF
