:100000000C9446000C9465000C9465000C946500FB
:100010000C9465000C9465000C9465000C946500CC
:100020000C9465000C9465000C9465000C946500BC
:100030000C9465000C940C010C9465000C94650004
:100040000C9465000C9465000C9465000C9465009C
:100050000C9465000C945C010C9465000C94650094
:100060000C9465000C9465000C9465000C9465007C
:100070000C9465000C9465000C9465000C9465006C
:100080000C9465000C9465000C94670011241FBE4D
:10009000CFEFD0E4DEBFCDBF11E0A0E0B1E0EEEEE7
:1000A000F6E000E00BBF02C007900D92A031B1074F
:1000B000D9F714E0A0E1B1E001C01D92A935B10764
:1000C000E1F70E947E000C9475030C9400001F92CF
:1000D0000F920FB60F9211248F939F938091160168
:1000E00090911701019690931701809316019F91AB
:1000F0008F910F900FBE0F901F901895CF93DF93A5
:100100000E944301109217011092160180919000F5
:100110008E7F80939000809190008D7F80939000DF
:1001200080919100877F80939100809191008F7ED4
:1001300080939100809190008F7B809390008091BC
:1001400090008F7780939000809190008F7E8093B5
:100150009000809190008F7D80939000809171003D
:100160008160809371008091910081608093910003
:10017000809191008D7F80939100809191008460A7
:1001800080939100789480E593EC2AEF30E0F901B8
:100190003197F1F70197D9F780E091E00E948E0145
:1001A000CAEFD0E08091160190911701909315014C
:1001B0008093140180919400909195009093130185
:1001C0008093120180911601909117010E94A40161
:1001D0008BE091E00E948E018091940090919500B7
:1001E0000E94A4018BE091E00E948E0160911201B7
:1001F0007091130180911401909115010E941C02CD
:100200008DE091E00E948E0180E197E2FE0131973E
:10021000F1F70197D9F7C6CF1F920F920FB60F9241
:100220000BB60F9211248F93EF93FF93E091580335
:10023000F0E0E85EFC4F8081823018F010926F0091
:1002400018C0E0915803F0E0E85EFC4F80818823FD
:1002500011F4299809C0E0915803F0E0E85EFC4FE2
:100260008081813009F4299A809158038F5F8093AF
:100270005803FF91EF918F910F900BBE0F900FBE1F
:100280000F901F9018951092C50080E48093C400D1
:10029000E0ECF0E080818D7F8083E1ECF0E0808114
:1002A00088638083E2ECF0E08081866080838081D7
:1002B00086708083789408951F920F920FB60F92E4
:1002C0000BB60F9211248F939F93EF93FF9385B1F9
:1002D00091E0892785B990911001809111019817BB
:1002E00069F080911001E82FF0E0E75AFC4F90810F
:1002F0009093C6008F5F8093100105C08091C1006C
:100300008F7D8093C100FF91EF919F918F910F900E
:100310000BBE0F900FBE0F901F901895DC0110C000
:10032000119680911101E82FF0E0E75AFC4F90837D
:100330008F5F809311018091C10080628093C10022
:100340009C91992369F70895EF92FF920F931F9361
:100350007C0160E177E20E943F03605D80911101C2
:1003600009E513E0F801E80FF11D60838F5F8093CA
:10037000110121EC30E0F901808180628083C701A6
:1003800060E177E20E943F0368EE73E00E943F0362
:10039000605D80911101F801E80FF11D60838F5FAE
:1003A00080931101F901808180628083C70168EE2A
:1003B00073E00E943F0364E670E00E943F03605DCB
:1003C00080911101F801E80FF11D60838F5F809328
:1003D0001101F901808180628083C70164E670E0C9
:1003E0000E943F036AE070E00E943F03605D8091DD
:1003F0001101F801E80FF11D60838F5F80931101F7
:10040000F901808180628083C7016AE070E00E9408
:100410003F03805D90911101090F111DF801808348
:100420009F5F90931101F9018081806280831F9109
:100430000F91FF90EF900895AF92BF92CF92DF920D
:10044000EF92FF920F931F936B017C0120E03AEC37
:100450004AE95BE30E945303205D8091110199E515
:10046000A92E93E0B92EF501E80FF11D20838F5FCF
:100470008093110101EC10E0F8018081806280839B
:10048000C701B60120E03AEC4AE95BE30E9453035E
:1004900020E031EE45EF55E00E945303205D80914E
:1004A0001101F501E80FF11D20838F5F8093110189
:1004B000F801808180628083C701B60120E031EEBF
:1004C00045EF55E00E94530320E836E948E950E043
:1004D0000E945303205D80911101F501E80FF11D89
:1004E00020838F5F80931101F80180818062808377
:1004F000C701B60120E836E948E950E00E945303FD
:1005000020E432E44FE050E00E945303205D8091EC
:100510001101F501E80FF11D20838F5F8093110118
:10052000F801808180628083C701B60120E432E453
:100530004FE050E00E94530320EA36E841E050E0EB
:100540000E945303205D80911101F501E80FF11D18
:1005500020838F5F80931101F80180818062808306
:10056000C701B60120EA36E841E050E00E9453039B
:1005700020E137E240E050E00E945303205D80918B
:100580001101F501E80FF11D20838F5F80931101A8
:10059000F801808180628083C701B60120E137E2E3
:1005A00040E050E00E94530328EE33E040E050E08A
:1005B0000E945303205D80911101F501E80FF11DA8
:1005C00020838F5F80931101F80180818062808396
:1005D000C701B60128EE33E040E050E00E9453032B
:1005E00024E630E040E050E00E945303205D80911B
:1005F0001101F501E80FF11D20838F5F8093110138
:10060000F801808180628083C701B60124E630E072
:1006100040E050E00E9453032AE030E040E050E028
:100620000E945303205D80911101F501E80FF11D37
:1006300020838F5F80931101F80180818062808325
:10064000C701B6012AE030E040E050E00E945303C9
:10065000605D80911101A80EB11CF50160838F5F70
:1006600080931101F8018081806280831F910F9136
:10067000FF90EF90DF90CF90BF90AF900895AA1BAE
:10068000BB1B51E107C0AA1FBB1FA617B70710F07D
:10069000A61BB70B881F991F5A95A9F780959095AF
:1006A000BC01CD010895A1E21A2EAA1BBB1BFD01BE
:1006B0000DC0AA1FBB1FEE1FFF1FA217B307E40741
:1006C000F50720F0A21BB30BE40BF50B661F771F99
:1006D000881F991F1A9469F7609570958095909579
:0E06E0009B01AC01BD01CF010895F894FFCF3E
:1006EE000D0A48656C6C6F3F0D0A002C002000004F
:00000001FF
