:100000000C9446000C9465000C9465000C946500FB
:100010000C9465000C9465000C9465000C946500CC
:100020000C9465000C9465000C9465000C946500BC
:100030000C9465000C948F000C9465000C94650082
:100040000C9465000C9465000C9465000C9465009C
:100050000C9465000C94C6000C9465000C9465002B
:100060000C9465000C9465000C9465000C9465007C
:100070000C9465000C9465000C9465000C9465006C
:100080000C9465000C9465000C94650011241FBE4F
:10009000CFEFD0E4DEBFCDBF11E0A0E0B1E0E4EFF0
:1000A000F1E000E00BBF02C007900D92A030B10755
:1000B000D9F714E0A0E0B1E001C01D92A334B1076C
:1000C000E1F70E9467000C94F8000C940000809106
:1000D00090008E7F80939000809190008D7F809320
:1000E000900080919000877F809390008091900095
:1000F0008F7B80939000809190008F778093900009
:10010000809190008F7E80939000809190008F7DF1
:100110008093900085E0809391007894FFCF1F92A8
:100120000F920FB60F920BB60F9211248F93EF938D
:10013000FF93E0914203F0E0EE5FFC4F808182305C
:1001400018F010926F0018C0E0914203F0E0EE5FEB
:10015000FC4F8081882311F4299809C0E091420363
:10016000F0E0EE5FFC4F8081813009F4299A8091A4
:1001700042038F5F80934203FF91EF918F910F9025
:100180000BBE0F900FBE0F901F9018951F920F92ED
:100190000FB60F920BB60F9211248F939F93EF938C
:1001A000FF9385B191E0892785B9909100018091F5
:1001B0000101981769F080910001E82FF0E0ED5BF4
:1001C000FC4F90819093C6008F5F8093000105C023
:1001D0008091C1008F7D8093C100FF91EF919F912D
:1001E0008F910F900BBE0F900FBE0F901F90189520
:0401F000F894FFCFB1
:00000001FF
