:100000000C9446000C9465000C9465000C946500FB
:100010000C9465000C9465000C9465000C946500CC
:100020000C9465000C9465000C9465000C946500BC
:100030000C9465000C9465000C9465000C946500AC
:100040000C9465000C9465000C9465000C9465009C
:100050000C9465000C946E010C9465000C94650082
:100060000C9465000C9465000C9465000C9465007C
:100070000C9465000C9465000C9465000C9465006C
:100080000C9465000C9465000C94070111241FBEAC
:10009000CFEFD0E4DEBFCDBF11E0A0E0B1E0E2E001
:1000A000F5E000E00BBF02C007900D92A034B1074D
:1000B000D9F712E0A0E4B1E001C01D92A838B10761
:1000C000E1F70E947E000C947F020C9400000E94D5
:1000D00055010E94CD000E9495000E942E020E94B0
:1000E00039020E9444020E944F020E945A020E945A
:1000F00029010E942C010E941E010895CF93DF93D5
:100100000E9467007894CAEFD0E00E9422010E940A
:10011000B60180E091E00E94A00180ED97E0FE0131
:100120003197F1F70197D9F7F0CFECE7F0E0808154
:1001300080688083808180648083EAE7F0E080814A
:1001400080688083808181608083808184608083F7
:10015000089590917C009E7F90937C0090917C000C
:100160009D7F90937C0090917C009B7F90937C007E
:1001700090917C008770892B80937C0080917A001D
:10018000806480937A0080917A0086FDFCCF209174
:10019000780030917900C90108951092850110927C
:1001A0008401E0E9F0E080818E7F808380818D7F13
:1001B0008083A1E9B0E08C91877F8C938C918F7EB6
:1001C0008C9380818F7B808380818F7780838081F7
:1001D0008F7E808380818F7D8083E1E7F0E0808166
:1001E000816080838C9181608C938C918D7F8C93C6
:1001F0008C9184608C9380E891E090937F01809350
:100200007E010296909387018093860108951F9244
:100210000F920FB60F9211248F939F9380918401B8
:1002200090918501019690938501809384019F911F
:100230008F910F900FBE0F901F9018950E9A1698E1
:100240000F980895169A87E090E00E94A9001698EA
:1002500008950D98159A0895559A5D98389A409882
:10026000579A5F98539A5B98529A5A98569A5E9802
:10027000549A5C9AE0EBF0E0808181608083808119
:10028000826080838081877F808380818F7B808371
:1002900080818068808380818F7E8083808180627E
:1002A000808383E08093B10008951092C50080E4BC
:1002B0008093C400E0ECF0E080818D7F8083E1ECEE
:1002C000F0E0808188638083E2ECF0E080818660EA
:1002D0008083808186708083789408951F920F9226
:1002E0000FB60F920BB60F9211248F939F93EF933B
:1002F000FF9385B191E0892785B990914001809164
:100300004101981769F080914001E82FF0E0E8572B
:10031000FE4F90819093C6008F5F8093400105C08F
:100320008091C1008F7D8093C100FF91EF919F91DB
:100330008F910F900BBE0F900FBE0F901F901895CE
:10034000DC0110C0119680914101E82FF0E0E857E0
:10035000FE4F90838F5F809341018091C100806246
:100360008093C1009C91992369F70895EF92FF92C1
:100370000F931F937C0160E177E20E946B02605D46
:100380008091410108E811E0F801E80FF11D608358
:100390008F5F8093410121EC30E0F9018081806220
:1003A0008083C70160E177E20E946B0268EE73E030
:1003B0000E946B02605D80914101F801E80FF11D20
:1003C00060838F5F80934101F90180818062808327
:1003D000C70168EE73E00E946B0264E670E00E9461
:1003E0006B02605D80914101F801E80FF11D6083AF
:1003F0008F5F80934101F901808180628083C70112
:1004000064E670E00E946B026AE070E00E946B029A
:10041000605D80914101F801E80FF11D60838F5FFD
:1004200080934101F901808180628083C7016AE085
:1004300070E00E946B02805D90914101090F111DD7
:10044000F80180839F5F90934101F9018081806270
:1004500080831F910F91FF90EF900895A2E4B1E087
:10046000E3E0F1E08CE001900D928150E1F7089516
:100470000895A2E7B1E0EFE0F1E08CE001900D9289
:100480008150E1F708950895AAE5B1E0EBE1F1E0CC
:100490008CE001900D928150E1F708950895AEE44B
:1004A000B1E0E7E2F1E08CE001900D928150E1F7DC
:1004B00008950895A6E6B1E0E3E3F1E08CE0019051
:1004C0000D928150E1F7269A239A229A2E9A2B9A1E
:1004D0002A9A08950895AA1BBB1B51E107C0AA1FC1
:1004E000BB1FA617B70710F0A61BB70B881F991FD5
:1004F0005A95A9F780959095BC01CD010895F8947F
:02050000FFCF2B
:100502000D0A000000000000006400000038020034
:100512000000000000640000004302000000000030
:1005220000640000004E020000000000000A00000B
:10053200005902000000000000102700006A0200BB
:00000001FF
