:100000000C9446000C9465000C9465000C946500FB
:100010000C9465000C9465000C9465000C946500CC
:100020000C9465000C9465000C9465000C946500BC
:100030000C9465000C9465000C9465000C946500AC
:100040000C9465000C9465000C9465000C9465009C
:100050000C9465000C946D010C9465000C94650083
:100060000C9465000C9465000C9465000C9465007C
:100070000C9465000C9465000C9465000C9465006C
:100080000C9465000C9465000C94060111241FBEAD
:10009000CFEFD0E4DEBFCDBF11E0A0E0B1E0E2EDF4
:1000A000F4E000E00BBF02C007900D92A034B1074E
:1000B000D9F712E0A0E4B1E001C01D92A838B10761
:1000C000E1F70E947E000C9467020C9400000E94ED
:1000D00054010E94CB000E9493000E94FC010E94E8
:1000E00007020E9412020E941D020E9428020E9422
:1000F00028010E942B010E941D0108950E946700A3
:1001000078940E9421010E94BB018CE391E00E943F
:10011000AF012FE78AE196E0215080409040E1F75F
:1001200000C00000EECFECE7F0E0808180688083C3
:10013000808180648083EAE7F0E08081806880834A
:100140008081816080838081846080830895909124
:100150007C009E7F90937C0090917C009D7F90938B
:100160007C0090917C009B7F90937C0090917C0020
:100170008770892B80937C0080917A0080648093C3
:100180007A0080917A0086FDFCCF20917800309132
:100190007900C90108951092850110928401E0E967
:1001A000F0E080818E7F808380818D7F8083A1E9D4
:1001B000B0E08C91877F8C938C918F7E8C93808123
:1001C0008F7B808380818F77808380818F7E808307
:1001D00080818F7D8083E1E7F0E080818160808392
:1001E0008C9181608C938C918D7F8C938C918460A9
:1001F0008C9380E891E090937F0180937E0182E868
:1002000091E0909387018093860108951F920F9249
:100210000FB60F9211248F939F9380918401909138
:100220008501019690938501809384019F918F9120
:100230000F900FBE0F901F9018950E9A16980F985A
:100240000895169A87E090E00E94A70016980895F6
:100250000D98159A0895559A5D98389A4098579A2E
:100260005F98539A5B98529A5A98569A5E98549A05
:100270005C9AE0EBF0E08081816080838081826025
:1002800080838081877F808380818F7B8083808152
:100290008068808380818F7E80838081806280837C
:1002A00083E08093B10008951092C50080E48093AC
:1002B000C400E0ECF0E080818D7F8083E1ECF0E031
:1002C000808188638083E2ECF0E0808186608083B7
:1002D000808186708083789408951F920F920FB664
:1002E0000F9211240BB60F928F939F93EF93FF936E
:1002F00085B191E0892785B99091410180914001B4
:10030000981769F080914101E82FF0E0E857FE4F1F
:1003100090819093C6008F5F8093410105C08091CA
:10032000C1008F7D8093C100FF91EF919F918F91CC
:100330000F900BBE0F900FBE0F901F9018959091CD
:100340004001E92FF0E0E857FE4F80839F5F9093D4
:100350004001E1ECF0E08081806280830895CF93DA
:10036000DF93EC0102C00E949F0189918111FBCFB4
:10037000DF91CF910895EF92FF920F931F93CF9348
:10038000DF93EC0160E177E20E9438027C01862F66
:10039000805D0E949F0108EE13E0C701B8010E9432
:1003A0003802862F805D0E949F01CE01B8010E9415
:1003B000380204E610E0B8010E943802862F805D02
:1003C0000E949F01CE01B8010E9438020AE010E0AD
:1003D000B8010E943802862F805D0E949F01CE01E5
:1003E000B8010E943802805D0E949F01CDB7DEB740
:1003F000E6E00C94580208958CE0E0E0F1E0A2E41D
:10040000B1E001900D928A95E1F7089508958CE08E
:10041000ECE0F1E0A2E7B1E001900D928A95E1F7FE
:10042000089508958CE0E8E1F1E0AAE5B1E00190DB
:100430000D928A95E1F7089508958CE0E4E2F1E0E9
:10044000AEE4B1E001900D928A95E1F70895089528
:100450008CE0E0E3F1E0A6E6B1E001900D928A9530
:10046000E1F7269A239A229A2E9A2B9A2A9A08958D
:10047000AA1BBB1B51E107C0AA1FBB1FA617B707CA
:1004800010F0A61BB70B881F991F5A95A9F78095E6
:100490009095BC01CD0108952A88398848885F84E9
:1004A0006E847D848C849B84AA84B984C884DF8014
:1004B000EE80FD800C811B81AA81B981CE0FD11DF8
:1004C0000FB6F894DEBF0FBECDBFED010895F894CE
:0204D000FFCF5C
:1004D20000000000000064000000FB0100000000BA
:1004E200000064000000060200000000000064003A
:1004F200000011020000000000000A0000001C02BF
:100502000000000000001027000027020D0A000072
:00000001FF
