:100000000C9446000C9465000C9465000C946500FB
:100010000C9465000C9465000C9465000C946500CC
:100020000C9465000C9465000C9465000C946500BC
:100030000C9465000C9454010C9465000C946500BC
:100040000C9465000C9465000C9465000C9465009C
:100050000C9465000C948B010C9465000C94650065
:100060000C9465000C9465000C9465000C9465007C
:100070000C9465000C9465000C9465000C9465006C
:100080000C9465000C9465000C94650011241FBE4F
:10009000CFEFD0E4DEBFCDBF11E0A0E0B1E0EEE7EE
:1000A000F3E000E00BBF02C007900D92A030B10753
:1000B000D9F714E0A0E0B1E001C01D92A334B1076C
:1000C000E1F70E9467000C94BD010C940000249A93
:1000D00084B5826084BD84B5806184BD84B58F7D24
:1000E00084BD84E085BD8AE487BD789483E085BDC6
:1000F00064E92AEF30E043E05DE777EAB3E5ADE598
:1001000067BD84EC99E0F9013197F1F70197D9F7D0
:1001100015BC88EE93E0F9013197F1F70197D9F713
:1001200045BD57BD82EE94E0F9013197F1F7019793
:10013000D9F715BC88EE93E0F9013197F1F70197F3
:10014000D9F745BD77BD86EA9EE0F9013197F1F711
:100150000197D9F715BC88EE93E0F9013197F1F7D3
:100160000197D9F745BD67BD84EC99E0F901319756
:10017000F1F70197D9F715BC88EE93E0F9013197B3
:10018000F1F70197D9F745BD57BD82EE94E0F9012B
:100190003197F1F70197D9F715BC88EE93E0F90193
:1001A0003197F1F70197D9F745BD77BD86EA9EE013
:1001B000F9013197F1F70197D9F715BC88EE93E073
:1001C000F9013197F1F70197D9F745BD67BD84EC87
:1001D00099E0F9013197F1F70197D9F715BC88EE4D
:1001E00093E0F9013197F1F70197D9F745BD57BD74
:1001F00082EE94E0F9013197F1F70197D9F715BC38
:1002000088EE93E0F9013197F1F70197D9F745BDF1
:10021000B7BD84EC99E0F9013197F1F70197D9F76F
:1002200015BC88EE93E0F9013197F1F70197D9F702
:1002300045BDA7BD82EE94E0F9013197F1F7019732
:10024000D9F715BC88EE93E0F9013197F1F70197E2
:10025000D9F745BD57BD86EA9EE0F9013197F1F720
:100260000197D9F715BC88EE93E0F9013197F1F7C2
:100270000197D9F745BD57BD82EE94E0F90131975A
:10028000F1F70197D9F715BC88EE93E0F9013197A2
:10029000F1F70197D9F715BC80E593ECF901319797
:1002A000F1F70197D9F72CCF1F920F920FB60F924B
:1002B0000BB60F9211248F93EF93FF93E0914203BB
:1002C000F0E0EE5FFC4F8081823018F010926F00FA
:1002D00018C0E0914203F0E0EE5FFC4F808188237C
:1002E00011F4299809C0E0914203F0E0EE5FFC4F61
:1002F0008081813009F4299A809142038F5F809335
:100300004203FF91EF918F910F900BBE0F900FBEA4
:100310000F901F9018951F920F920FB60F920BB669
:100320000F9211248F939F93EF93FF9385B191E0E8
:10033000892785B99091000180910101981769F092
:1003400080910001E82FF0E0ED5BFC4F90819093ED
:10035000C6008F5F8093000105C08091C1008F7D32
:100360008093C100FF91EF919F918F910F900BBEF1
:0E0370000F900FBE0F901F901895F894FFCFBE
:00000001FF
