:100000000C9446000C9465000C9465000C946500FB
:100010000C9465000C9465000C9465000C946500CC
:100020000C9465000C9465000C9465000C946500BC
:100030000C9465000C94BD010C9465000C94650053
:100040000C9465000C9465000C9465000C9465009C
:100050000C9465000C94F5010C9465000C946500FB
:100060000C9465000C9465000C9465000C9465007C
:100070000C9465000C9465000C9465000C9465006C
:100080000C9465000C9465000C94650011241FBE4F
:10009000CFEFD0E4DEBFCDBF11E0A0E0B1E0E0ECF7
:1000A000F4E000E00BBF02C007900D92A030B10752
:1000B000D9F714E0A0E0B1E001C01D92A93AB10760
:1000C000E1F70E946C000C945E020C9400000C9A04
:1000D000229A0B980A9A0895A7E0B0E0E2E7F0E0D0
:1000E0000C9433020E9467002A9A88E893E12AEF71
:1000F00030E0F9013197F1F70197D9F72A980E947A
:10010000A400FE01319687E0DF011D928A95E9F790
:1001100085E5E82EFF24F3940AEF10E0E982FB82E4
:10012000FD8225E53A8141E05C8161E07E818F813D
:100130000E94D2000E94850180E197E2F801319788
:10014000F1F70197D9F7EACF1092800089E0809308
:1001500081001092820087EC90E090938900809358
:10016000880010926F0078940895CF93DF93DC019C
:10017000EB01442341F08881FD01E80FF11D91E07E
:1001800090838F5F88838881FD01E80FF11D91E0E6
:1001900090838F5FA80FB11D1C928F5F8883DF91C2
:1001A000CF910895A8E0B0E0E8EDF0E00C942902CA
:1001B000F22F2A83E32F3B83342F4C835D836E839E
:1001C0007F838887DE2E932E562E652E472E8091B4
:1001D0000101082F10E076E0000F111F7A95E1F77A
:1001E0000C5F1E4F8F5F8093010180910101883069
:1001F00011F410920101992D990F990F8D2D82956F
:10020000807F892BC52CCC0CC82A0C2CC294C0240E
:100210000C2CC694C694C0248F2E082C8294802463
:10022000082C869486948024762C072C7294702453
:10023000072C76947694702481E0D8018C931196E3
:100240008C93119712961C9283E08983EF2EFF24E2
:100250005E010894A11CB11C4E2D4170C801B5016E
:100260000E94B500E694F394B8E0FB16A9F7E62CDB
:10027000FF245E010894A11CB11C4E2D4170C801E1
:10028000B5010E94B500E694F39488E0F816A9F74A
:100290004D2D4170C801B5010E94B500D694A1E072
:1002A000DA22C801B5014D2D0E94B500B1E09B22B4
:1002B000C801B501492D0E94B500C801B501452D01
:1002C0000E94B5004C2D50E04F5F5F4F559547950C
:1002D0004170882D90E0019695958795817090707A
:1002E000480F872D90E0019695958795480F4170AE
:1002F000C801B5010E94B5008981F801E80FF11D20
:1003000040822896E0E10C94450290910101809191
:100310000001981789F180916F0081FD2DC020E0C8
:1003200030E0E0910001F0E0A6E0EE0FFF1FAA959B
:10033000E1F7E20FF31FEC5FFE4F8081F901EC5F04
:10034000FC4F80832F5F3F4F2034310551F7809160
:1003500000018F5F8093000180910001883011F4CB
:10036000109200011092A803109285001092840050
:1003700082E080936F00119A08951F920F920FB63A
:100380000F920BB60F9211248F93EF93FF93E0918E
:10039000A803F0E0EC5FFC4F8081823020F01092E7
:1003A0006F00119818C0E091A803F0E0EC5FFC4FDB
:1003B0008081882311F4149809C0E091A803F0E02B
:1003C000EC5FFC4F8081813009F4149A8091A8037E
:1003D0008F5F8093A803FF91EF918F910F900BBED9
:1003E0000F900FBE0F901F9018951F920F920FB68F
:1003F0000F920BB60F9211248F939F93EF93FF935D
:1004000085B191E0892785B990910201809103011E
:10041000981769F080910201E82FF0E0E755FC4F52
:1004200090819093C6008F5F8093020105C08091F8
:10043000C1008F7D8093C100FF91EF919F918F91BB
:100440000F900BBE0F900FBE0F901F9018952F921C
:100450003F924F925F926F927F928F929F92AF9254
:10046000BF92CF92DF92EF92FF920F931F93CF93A1
:10047000DF93CDB7DEB7CA1BDB0B0FB6F894DEBF38
:100480000FBECDBF09942A88398848885F846E845E
:100490007D848C849B84AA84B984C884DF80EE80A8
:1004A000FD800C811B81AA81B981CE0FD11D0FB6B1
:1004B000F894DEBF0FBECDBFED010895F894FFCFD5
:00000001FF
